:020000040000FA
:0800000000008A110A12052814
:06000A001C30FE00013075
:10001000FF0080308A110A12FB208A110A12831213
:100020000313A1007F08A0001E30A2000130A3002E
:10003000831203132008A4002108A500FF30A007A5
:10004000031CA10324082504031995280430220762
:10005000A400A501A50D2308A5072408FE00250876
:10006000FF0080308A110A12FB208A110A128312C3
:100070000313A7007F08A6002208FE002308FF0044
:1000800080308A110A12FB208A110A12831203138C
:10009000A900A5007F08A800A40002302207A40040
:1000A000A501A50D2308A5072408FE002508FF00CB
:1000B00080308A110A12FB208A110A12831203135C
:1000C000A500AB007F08A400AA0083120313260832
:1000D000AA002708AB00FF30A607031CA7032A08C5
:1000E0002B0403198E282808FE002908FF00803001
:1000F0008A110A12E8208A110A1283120313AA0035
:10010000240884008313251883172A088000A80A6E
:100110000319A90AA40A0319A50A6528063083123F
:100120000313A2070318A30A18288A110A12992890
:100130000800FE308316031386008312031306148F
:10014000BE2083120313B00183120313061CAB28D5
:1001500083120313B00A013083120313B006300870
:10016000B100310C0318B728831203130610031CC7
:10017000BC28831203130614A0280800FF30831242
:100180000313AC001F30AD00AE01AF0183120313A7
:100190002F08803E803E031DD72800302E02031D0D
:1001A000D72800302D02031DD72801302C02031C54
:1001B000E728FF3083120313AC07FF30031CAD07A1
:1001C000FF30031CAE07FF30031CAF07C628080032
:1001D000003A0319EF28803A0319F62800347E0804
:1001E000840083137F188317000808007F088A00A3
:1001F0007E0882000800003A03190329803A031997
:100200000D29FF0100347E08840083137F188317B3
:100210000008FF00840A000808008A110A12F6206C
:10022000FD00FE0FFF03FF0A8A110A12F620FC00F0
:100230007D08FF007C0808000134003424340134B8
:0A024000323400340134003400347D
:00000001FF
