:020000040000FA
:0400000055EF01F0C7
:06002A00D80EF66E020E76
:10003000F76E000EF86E0900F550056E0900F550D8
:10004000066E04E1056702D064EF00F00900F55088
:10005000006E0900F550016E0900F550026E0900AE
:100060000900F550E96E0900F550EA6E0900090033
:100070000900F550036E0900F550046E09000900EF
:10008000F6CF07F0F7CF08F0F8CF09F000C0F6FF81
:1000900001C0F7FF02C0F8FF035002E1045009E07D
:1000A0000900F550EE6EF5CF7EFF0306F6E204067A
:1000B000F7D707C0F6FF08C0F7FF09C0F8FF05062D
:1000C00001E2060621EF00F01200D9CFE5FFE1CFF3
:1000D000D9FF00C0E5FF01C0E5FF02C0E5FF03C096
:1000E000E5FF04C0E5FF05C0E5FF06C0E5FF020E21
:1000F000DBCF00F0030EDBCF01F0040EDBCF02F00C
:10010000036A03500024046EE86A0120056EE86A61
:100110000220066E04C0E9FF05C0F3FF065044EC60
:1001200001F0046E0450D8B49EEF00F00450E56E68
:10013000AFEC00F0E12A032A81EF00F0E4CF06F0F3
:10014000E4CF05F0E4CF04F0E4CF03F0E4CF02F015
:10015000E4CF01F0E4CF00F0E4CFD9FF1200D9CF13
:10016000E5FFE1CFD9FF00C0E5FF020EDBCF00F0D5
:100170009EA8B8EF00F000C0ADFFE4CF00F0E4CFE0
:10018000D9FF12000A546869732070726F67726138
:100190006D20776173207772697465642075736967
:1001A0006E67205344434320636F6D70696C6572C2
:1001B00000000D50726573732061206B65792061BA
:1001C0006E6420492077696C6C206563686F2069D4
:1001D00074206261636B3A0A00000D492064657403
:1001E0006563746564205B00948E948C810EAF6EA1
:1001F000900EAB6E240EAC6E000EE56E010EE56E39
:10020000840EE56E65EC00F0030EE126000EE56E4F
:10021000010EE56EB20EE56E65EC00F0030EE12610
:1002200061EC01F0006E000EE56E010EE56EDA0E77
:10023000E56E65EC00F0030EE1260050E56EAFECD4
:1002400000F0E12A5D0EE56EAFEC00F0E12A10EF60
:1002500001F01200D9CFE5FFE1CFD9FF00C0E5FFE3
:1002600001C0E5FF61EC01F0006E00C001F000503C
:10027000E56EAFEC00F0E12A0150E4CF01F0E4CFED
:1002800000F0E4CFD9FF1200E8AE04D0F3CFEAFFCC
:10029000EE501200E8BC08D0E9CFF6FFF3CFF7FF2D
:1002A000F86E0900F5501200120012EEFFF022EE77
:1002B000FFF0F86AA68EA69C15EC00F0F4EC00F0B6
:1002C000FFD7D9CFE5FFE1CFD9FF9EAA65EF01F0B7
:1002D000AE50E4CFD9FF12000100E602000080001A
:0802E000000001000000000015
:00000001FF
