:020000000528D1
:1000080009002030840032300D20802A0406800147
:10001800840A0406031D0A286400003483120313AB
:10002800B200B31B2028331B282833088A00320863
:10003800B20A0319B30A82008313331883173208EC
:10004800B20A8400000808008301330C1F398312A8
:1000580003178F0083120313320C831203178D00CA
:10006800831603178C170C14000000008312031763
:100078000C08830132184628831203178C1B0314BB
:100088000E0D83017F39080054056934A039723890
:10009800E7376139F3367710F33077106939653A05
:1000A8002032F33AEE34A0336924F416E3322034D4
:1000B8004928C321CC16F434A032A021EF31F03600
:1000C800EC34F2320D00A0246532653AF431E432A2
:1000D8005B10E312802ED0066539F33961106B107E
:1000E800F9326110643749107710EC342036E33266
:1000F8006F346910203A6131EB310A1D0000FF01AD
:10010800FD01FE017B087C04031D8D28F901FA011D
:1001180000341F30FF040310FF0AFB0DFC0D031C05
:100128009028FC0CFB0C7C087A02031D9D287B0898
:100138007902031CA5287B08F9027C08031C7C0AA9
:10014800FA02FD0DFE0DFF0BFF1A9528FF1FB128BF
:10015800FD09FD0A0319FE03FE097D08FB007E0860
:10016800FC007F1F0034F909F90A0319FA03FA0998
:1001780000348301AC00A9012308A7006C2A2B08CE
:10018800253A031D5F2AFF30A800AA01A601292AE3
:10019800AC080319D3282C0884008313800129088C
:1001A80008000230A70727028400831300085D2A8D
:1001B800A60AE2280830A807FE30A8070230A707D9
:1001C8002702840083130008AD00840A0008AE00EB
:1001D8002618AE1FF628AD09AE09AD0A0319AE0AF6
:1001E800AA03F728A6010B30A8072808FB00FC0182
:1001F8002E08FA002D08F90083207908AB0028089A
:10020800FB00FC012D08F9002E08FA0083207D0868
:10021800AD007E08AE00AF01AF0AB00130082E0273
:10022800031D18292F082D02031C35292808FB0057
:10023800FC012F08F9003008FA00A4227D08AF005D
:100248007E08B000AA031229A90AAC0803193329A9
:100258002C088400831320308000AC0A3529203014
:10026800C522AA032A08803A7F3E03182829261C9B
:100278004829A90AAC08031946292C0884008313C5
:100288002D3079292D30C5222808FB00FC012F08C4
:10029800F9003008FA0083207D08AF007E08B0001E
:1002A8002F0403197F293008FC002F08FB002E08B3
:1002B800FA002D08F90083207D08F9007E08FA006D
:1002C8002808FB00FC0183207908AA00803A763EC2
:1002D800031C70290730AA07A90AAC0803197C294E
:1002E8002C08840083132A08303E8000AC0A482971
:1002F8002A08303E47290A302B02031C852907307B
:10030800AB07A90AAC0803198F292C0884008313AA
:100318002B08303E672A2B08303E6B2AA90AAC0806
:1003280003199D292C088400831320308000AC0A0F
:100338009F292030C522AA032A08803A7E3E031846
:1003480092290230A7072702840083130008AB0014
:100358005F2A0230A7072702840083130008AF0032
:10036800840A0008B000AB012B082F07B200300840
:10037800B30032080318B30A122000380319C6293B
:10038800AB0AB82928082B020318CC292B08A80087
:100398002808AA1BF729FF3A2A07031CF729A90AE4
:1003A800AC080319DE292C08840083132030800050
:1003B800AC0AE0292030C522AA03CC293008B300B2
:1003C8002F081220AB00AF0A0319B00AA90AAC081B
:1003D8000319F5292C08840083132B088000AC0A24
:1003E800F7292B08C522A803280FE2296C2A25081B
:1003F800B300240812202A3A031D092A0230A7074D
:100408002702840083130008252A2508B30024083E
:100418001220D03EA800A40A0319A50A2508B30093
:1004280024081220AB0030302B02031C292A3A3052
:100438002B020318292A0A30FA002808B9222B07A8
:10044800D03EA800A40A0319A50A2508B300240869
:10045800A40A0319A50A1220AB00003A0319CC28F4
:100468002A3A0319D528043A0319FB29763A0319BD
:10047800DE283B3A0319A029073A0319DC280B3A6E
:100488000319E0281C3A0319AD29063A0319E22892
:100498000D3A0319DE2830302B02031C5F2A3A304C
:1004A8002B0203185F2A0A30FA002A08B9222B0700
:1004B800D03EAA00292AA90AAC0803196A2A2C08DE
:1004C800840083132B088000AC0A6C2A2B08C522F1
:1004D8002508B3002408A40A0319A50A1220AB00B2
:1004E800AB08031DC328AC0803197E2A2C08840016
:1004F80083138001290808008B01831603138717CB
:1005080007178130990090308312980024308316A1
:10051800980090308312A4004030A500D822DE3025
:10052800A4004030A500D822CE22A000CD30A400DF
:100538004030A5002008A100A2012130A300972A7D
:10054800FD01FE010310FC0CFB0C031CB22A790808
:10055800FD077A0803187A0AFE070310F90DFA0D49
:100568007B087C0403190034A62AF90000307A18A5
:1005780079070310F90D0310FA0CFA08031908009B
:10058800BB2A8301B100831203130C1EC72A31084A
:100598009900080083018C1ECE2A1A080800CE2272
:0C05A800A000C522200808000030BD287B
:00000001FF
