:1000000000308A007A2800000A108A100A1182073C
:100010000A3454346834693473342034703472349C
:100020006F346734723461346D3473342034773410
:100030006134733420347734723469347434653401
:10004000643420347534733469346E346734203446
:1000500043344334533420345034493443344334E8
:10006000203463346F346D34703469346C346534E7
:10007000723400340A108A100A1182070D34503489
:1000800072346534733473342034613420346B3407
:1000900065347934203461346E3464342034493426
:1000A0002034773469346C346C34203465346334F0
:1000B00068346F34203469347434203462346134E9
:1000C00063346B343A340A3400340A108A100A114B
:1000D00082070D3449342034643465347434653413
:1000E000633474346534643420345B3425346334CD
:1000F0005D340034840183131F30830581308316FF
:100100009900A630980090308312980083161F142F
:100110009F141F159F1107309C008312A001A1019D
:10012000A30123080420A30AF70077080C1E9628D1
:10013000990031302302031D9128A30123083A209E
:10014000A30AF70077080C1EA32899002630230283
:10015000031D9E288C1EAA281A08A200A3012308AA
:100160006520A30AF70077080C1EB42899000D300B
:100170002302031DAF2822080C1EBC2899005D3005
:0A0180000C1EC0289900AA28630095
:02400E00723FFF
:00000001FF
;PIC16F877A
