:020000040000FA
:04000000AFEF00F06E
:06002A00760EF66E010ED9
:10003000F76E000EF86E0900F550056E0900F550D8
:10004000066E04E1056702D064EF00F00900F55088
:10005000006E0900F550016E0900F550026E0900AE
:100060000900F550E96E0900F550EA6E0900090033
:100070000900F550036E0900F550046E09000900EF
:10008000F6CF07F0F7CF08F0F8CF09F000C0F6FF81
:1000900001C0F7FF02C0F8FF035002E1045009E07D
:1000A0000900F550EE6EF5CF7EFF0306F6E204067A
:1000B000F7D707C0F6FF08C0F7FF09C0F8FF05062D
:1000C00001E2060621EF00F01200D9CFE5FFE1CFF3
:1000D000D9FF00C0E5FF01C0E5FF02C0E5FF03C096
:1000E000E5FFFF0E006E1F0E016E026A036A0350E9
:1000F000800F800F08E1000E025C05E1000E015C3C
:1001000002E1010E005CD8A090EF00F0FF0E002687
:10011000FF0E0122FF0E0222FF0E032277EF00F0F6
:10012000E4CF03F0E4CF02F0E4CF01F0E4CF00F03D
:10013000E4CFD9FF1200FE0E936E818065EC00F0D3
:10014000006A81B0002A010E001A0050010BF46E03
:100150008150FE0BF410816E9EEF00F0120012EE43
:10016000FFF022EEFFF0F86AA68EA69C15EC00F0D8
:100170009BEC00F0FFD7010084010000800000002C
:0601800001000000000078
:00000001FF
