:020000000528D1
:100008000900A001A101A201A3013A28FF30830140
:10001800A0001F30A100A201A30126280130FC0086
:10002800FD01FE01FF0183120313A0027D08031CDA
:100038007D0FA1027E08031C7E0FA2027F08031C0D
:100048007F0AA3022308803AFC0080307C02031D4B
:10005800372800302202031D372800302102031DF3
:10006800372801302002031C08001228FE308316AE
:1000780003138600831206140A20013086064028DE
:00000001FF
