:020000040000FA
:0800000000008A110A12052814
:06000A00BC30FE000130D5
:10001000FF0080308A110A1239218A110A128312D4
:100020000313B0007F08AF00BE30B1000130B20052
:10003000831203132F08B3003008B400FF30AF075A
:10004000031CB00333083404031995280430310726
:10005000B300B401B40D3208B4073308FE0034080D
:10006000FF0080308A110A1239218A110A12831284
:100070000313B6007F08B5003108FE003208FF0008
:1000800080308A110A1239218A110A12831203134D
:10009000B800B4007F08B700B30002303107B300E6
:1000A000B401B40D3208B4073308FE003408FF0071
:1000B00080308A110A1239218A110A12831203131D
:1000C000B400BA007F08B300B900831203133508E7
:1000D000B9003608BA00FF30B507031CB60339086B
:1000E0003A0403198E283708FE003808FF008030D4
:1000F0008A110A1226218A110A1283120313B900E7
:100100003308840083133418831739088000B70A32
:100110000319B80AB30A0319B40A65280630831212
:100120000313B1070318B20A18288A110A12992872
:100130000800831603138717071781309900903042
:1001400083120313980024308316031398000130A0
:1001500083120313AC005A30AB008030AD002B0883
:10016000FE002C08FF002D08DB2001308312031352
:10017000AC008730AB008030AD002B08FE002C08AF
:10018000FF002D08DB20122183120313AB00013086
:10019000AD00AE30AC008030AE002C08FE002D0863
:1001A000FF002E08DB20831203132B0818215D307B
:1001B0001821C328080083120313A5007F08A40098
:1001C0007E08A300A6018312031326082307A700B5
:1001D00024080318013EA80025080318013EA900C1
:1001E0002708FE002808FF0029088A110A12262184
:1001F0008A110A1283120313AA002A080319062976
:100200002A08182183120313A60AE32808001221E2
:1002100083120313A100A2002108182183120313E3
:1002200022080800831203138C1E12291A080800E2
:1002300083120313A000831203130C1E1B298312C5
:10024000031320088312031399000800003A0319CE
:100250002D29803A0319342900347E088400831341
:100260007F188317000808007F088A007E08820034
:100270000800003A03194129803A03194B29FF016C
:1002800000347E08840083137F1883170008FF0062
:10029000840A000808008A110A123421FD00FE0FAA
:1002A000FF03FF0A8A110A123421FC007D08FF00B7
:1002B0007C0808000A3454346834693473342034B8
:1002C000703472346F346734723461346D34203476
:1002D000773461347334203477347234693474344D
:1002E0006534643420347534733469346E3467345F
:1002F00020345334443443344334203463346F342F
:100300006D34703469346C346534723400340D34B7
:10031000503472346534733473342034613420348F
:100320006B3465347934203461346E346434203471
:1003300049342034773469346C346C342034653477
:10034000633468346F342034693474342034623454
:10035000613463346B343A340A3400340D34493434
:1003600020346434653474346534633474346534EF
:10037000643420345B34003401340034C434013438
:0A0380003B34003401340034003433
:00000001FF
