:020000040000FA
:1000000050EF00F0F76A140FF66E000EF7220900A9
:10001000F55012000A546869732070726F6772613C
:100020006D732077617320777269746564207573CE
:10003000696E6720434353205049434320636F6DEB
:1000400070696C657200F76A560FF66E000EF72243
:100050000900F55012000D50726573732061206B1A
:10006000657920616E6420492077696C6C20656336
:10007000686F206974206261636B3A0A0000F76A56
:100080008E0FF66E000EF7220900F55012000D4992
:10009000206465746563746564205B25635D00009E
:1000A000F86AD09EEA6AE96A810EAF6EA60EAC6E5F
:1000B000900EAB6EC180C182C184C196056A066A8A
:1000C000086A08509FDF082A006E00509EA8FED7DD
:1000D000AD6E310E085CF5E1086A0850B4DF082AFD
:1000E000006E00509EA8FED7AD6E260E085CF5E1AE
:1000F0009EAAFED7AECF07F0086A0850C0DF082AD4
:10010000006E00509EA8FED7AD6E0D0E085CF5E1A6
:1001100007509EA8FED7AD6E5D0E9EA8FED7AD6EB1
:04012000E7D703001A
:020000040030CA
:0E00000000220E0E000181000FC00FE00F4025
:00000001FF
;PIC18F452
